{
  "_format": "hh-sol-artifact-1",
  "contractName": "WavePortal",
  "sourceName": "contracts/WavePortal.sol",
  "abi": [
    {
      "inputs": [],
      "stateMutability": "nonpayable",
      "type": "constructor"
    },
    {
      "inputs": [],
      "name": "getTotalWavers",
      "outputs": [
        {
          "internalType": "uint256",
          "name": "",
          "type": "uint256"
        }
      ],
      "stateMutability": "view",
      "type": "function"
    },
    {
      "inputs": [],
      "name": "getTotalWaves",
      "outputs": [
        {
          "internalType": "uint256",
          "name": "",
          "type": "uint256"
        }
      ],
      "stateMutability": "view",
      "type": "function"
    },
    {
      "inputs": [],
      "name": "wave",
      "outputs": [],
      "stateMutability": "nonpayable",
      "type": "function"
    }
  ],
  "bytecode": "0x608060405234801561001057600080fd5b5061003c6040518060600160405280602681526020016108d46026913961004160201b6102bc1760201c565b6101c4565b6100dd816040516024016100559190610142565b6040516020818303038152906040527f41304fac000000000000000000000000000000000000000000000000000000007bffffffffffffffffffffffffffffffffffffffffffffffffffffffff19166020820180517bffffffffffffffffffffffffffffffffffffffffffffffffffffffff83818316178352505050506100e060201b60201c565b50565b60008151905060006a636f6e736f6c652e6c6f679050602083016000808483855afa5050505050565b600061011482610164565b61011e818561016f565b935061012e818560208601610180565b610137816101b3565b840191505092915050565b6000602082019050818103600083015261015c8184610109565b905092915050565b600081519050919050565b600082825260208201905092915050565b60005b8381101561019e578082015181840152602081019050610183565b838111156101ad576000848401525b50505050565b6000601f19601f8301169050919050565b610701806101d36000396000f3fe608060405234801561001057600080fd5b50600436106100415760003560e01c80636fe15b44146100465780639a2cdc0814610050578063a126adab1461006e575b600080fd5b61004e61008c565b005b610058610220565b604051610065919061058f565b60405180910390f35b61007661026b565b604051610083919061058f565b60405180910390f35b6000600160003373ffffffffffffffffffffffffffffffffffffffff1673ffffffffffffffffffffffffffffffffffffffff168152602001908152602001600020541415610138576002339080600181540180825580915050600190039060005260206000200160009091909190916101000a81548173ffffffffffffffffffffffffffffffffffffffff021916908373ffffffffffffffffffffffffffffffffffffffff1602179055505b600160008082825461014a91906105c6565b9250508190555060018060003373ffffffffffffffffffffffffffffffffffffffff1673ffffffffffffffffffffffffffffffffffffffff1681526020019081526020016000205461019c91906105c6565b600160003373ffffffffffffffffffffffffffffffffffffffff1673ffffffffffffffffffffffffffffffffffffffff1681526020019081526020016000208190555061021e6040518060400160405280600d81526020017f257320686173207761766564210000000000000000000000000000000000000081525033610355565b565b60006102636040518060400160405280601781526020017f5765206861766520256420746f74616c207761766573210000000000000000008152506000546103f1565b600054905090565b60006102b16040518060400160405280601881526020017f5765206861766520256420746f74616c207761766572732100000000000000008152506002805490506103f1565b600280549050905090565b610352816040516024016102d0919061050d565b6040516020818303038152906040527f41304fac000000000000000000000000000000000000000000000000000000007bffffffffffffffffffffffffffffffffffffffffffffffffffffffff19166020820180517bffffffffffffffffffffffffffffffffffffffffffffffffffffffff838183161783525050505061048d565b50565b6103ed828260405160240161036b92919061052f565b6040516020818303038152906040527f319af333000000000000000000000000000000000000000000000000000000007bffffffffffffffffffffffffffffffffffffffffffffffffffffffff19166020820180517bffffffffffffffffffffffffffffffffffffffffffffffffffffffff838183161783525050505061048d565b5050565b610489828260405160240161040792919061055f565b6040516020818303038152906040527f9710a9d0000000000000000000000000000000000000000000000000000000007bffffffffffffffffffffffffffffffffffffffffffffffffffffffff19166020820180517bffffffffffffffffffffffffffffffffffffffffffffffffffffffff838183161783525050505061048d565b5050565b60008151905060006a636f6e736f6c652e6c6f679050602083016000808483855afa5050505050565b6104bf8161061c565b82525050565b60006104d0826105aa565b6104da81856105b5565b93506104ea818560208601610658565b6104f3816106ba565b840191505092915050565b6105078161064e565b82525050565b6000602082019050818103600083015261052781846104c5565b905092915050565b6000604082019050818103600083015261054981856104c5565b905061055860208301846104b6565b9392505050565b6000604082019050818103600083015261057981856104c5565b905061058860208301846104fe565b9392505050565b60006020820190506105a460008301846104fe565b92915050565b600081519050919050565b600082825260208201905092915050565b60006105d18261064e565b91506105dc8361064e565b9250827fffffffffffffffffffffffffffffffffffffffffffffffffffffffffffffffff038211156106115761061061068b565b5b828201905092915050565b60006106278261062e565b9050919050565b600073ffffffffffffffffffffffffffffffffffffffff82169050919050565b6000819050919050565b60005b8381101561067657808201518184015260208101905061065b565b83811115610685576000848401525b50505050565b7f4e487b7100000000000000000000000000000000000000000000000000000000600052601160045260246000fd5b6000601f19601f830116905091905056fea2646970667358221220b2893ac24b25c1598d58c035c822ecb85b66b8891a9c435464824f5656412ed864736f6c63430008040033596f20796f2c204920616d206120636f6e747261637420616e64204920616d20736d61727421",
  "linkReferences": {},
  "deployedLinkReferences": {}
}