{
  "_format": "hh-sol-artifact-1",
  "contractName": "WavePortal",
  "sourceName": "contracts/WavePortal.sol",
  "abi": [
    {
      "inputs": [],
      "stateMutability": "nonpayable",
      "type": "constructor"
    },
    {
      "anonymous": false,
      "inputs": [
        {
          "indexed": true,
          "internalType": "address",
          "name": "from",
          "type": "address"
        },
        {
          "indexed": false,
          "internalType": "uint256",
          "name": "timestamp",
          "type": "uint256"
        },
        {
          "indexed": false,
          "internalType": "string",
          "name": "message",
          "type": "string"
        }
      ],
      "name": "NewWave",
      "type": "event"
    },
    {
      "inputs": [],
      "name": "getAllWaves",
      "outputs": [
        {
          "components": [
            {
              "internalType": "address",
              "name": "waver",
              "type": "address"
            },
            {
              "internalType": "string",
              "name": "message",
              "type": "string"
            },
            {
              "internalType": "uint256",
              "name": "timestamp",
              "type": "uint256"
            }
          ],
          "internalType": "struct WavePortal.Wave[]",
          "name": "",
          "type": "tuple[]"
        }
      ],
      "stateMutability": "view",
      "type": "function"
    },
    {
      "inputs": [],
      "name": "getTotalWavers",
      "outputs": [
        {
          "internalType": "uint256",
          "name": "",
          "type": "uint256"
        }
      ],
      "stateMutability": "view",
      "type": "function"
    },
    {
      "inputs": [],
      "name": "getTotalWaves",
      "outputs": [
        {
          "internalType": "uint256",
          "name": "",
          "type": "uint256"
        }
      ],
      "stateMutability": "view",
      "type": "function"
    },
    {
      "inputs": [
        {
          "internalType": "string",
          "name": "_message",
          "type": "string"
        }
      ],
      "name": "wave",
      "outputs": [],
      "stateMutability": "nonpayable",
      "type": "function"
    }
  ],
  "bytecode": "0x60806040523480156200001157600080fd5b506200004160405180606001604052806026815260200162000fd3602691396200004760201b620005651760201c565b620001db565b620000e7816040516024016200005e919062000154565b6040516020818303038152906040527f41304fac000000000000000000000000000000000000000000000000000000007bffffffffffffffffffffffffffffffffffffffffffffffffffffffff19166020820180517bffffffffffffffffffffffffffffffffffffffffffffffffffffffff8381831617835250505050620000ea60201b60201c565b50565b60008151905060006a636f6e736f6c652e6c6f679050602083016000808483855afa5050505050565b6000620001208262000178565b6200012c818562000183565b93506200013e81856020860162000194565b6200014981620001ca565b840191505092915050565b6000602082019050818103600083015262000170818462000113565b905092915050565b600081519050919050565b600082825260208201905092915050565b60005b83811015620001b457808201518184015260208101905062000197565b83811115620001c4576000848401525b50505050565b6000601f19601f8301169050919050565b610de880620001eb6000396000f3fe608060405234801561001057600080fd5b506004361061004c5760003560e01c8063449d46c0146100515780639a2cdc081461006d578063a126adab1461008b578063bd43a908146100a9575b600080fd5b61006b6004803603810190610066919061086a565b6100c7565b005b610075610378565b6040516100829190610ad6565b60405180910390f35b6100936103c3565b6040516100a09190610ad6565b60405180910390f35b6100b1610414565b6040516100be9190610a32565b60405180910390f35b6000600160003373ffffffffffffffffffffffffffffffffffffffff1673ffffffffffffffffffffffffffffffffffffffff168152602001908152602001600020541415610173576002339080600181540180825580915050600190039060005260206000200160009091909190916101000a81548173ffffffffffffffffffffffffffffffffffffffff021916908373ffffffffffffffffffffffffffffffffffffffff1602179055505b60016000808282546101859190610bdd565b9250508190555060018060003373ffffffffffffffffffffffffffffffffffffffff1673ffffffffffffffffffffffffffffffffffffffff168152602001908152602001600020546101d79190610bdd565b600160003373ffffffffffffffffffffffffffffffffffffffff1673ffffffffffffffffffffffffffffffffffffffff168152602001908152602001600020819055506102596040518060400160405280600d81526020017f2573206861732077617665642100000000000000000000000000000000000000815250336105fe565b600360405180606001604052803373ffffffffffffffffffffffffffffffffffffffff16815260200183815260200142815250908060018154018082558091505060019003906000526020600020906003020160009091909190915060008201518160000160006101000a81548173ffffffffffffffffffffffffffffffffffffffff021916908373ffffffffffffffffffffffffffffffffffffffff160217905550602082015181600101908051906020019061031892919061075f565b506040820151816002015550503373ffffffffffffffffffffffffffffffffffffffff167f5f7e16dc676677766a70e9c5628aa6c54ddb8b6e5188e2ae1e1f17f1ffbea716428360405161036d929190610af1565b60405180910390a250565b60006103bb6040518060400160405280601781526020017f5765206861766520256420746f74616c2077617665732100000000000000000081525060005461069a565b600054905090565b60006104096040518060400160405280601881526020017f5765206861766520256420746f74616c2077617665727321000000000000000081525060028054905061069a565b600280549050905090565b60606003805480602002602001604051908101604052809291908181526020016000905b8282101561055c57838290600052602060002090600302016040518060600160405290816000820160009054906101000a900473ffffffffffffffffffffffffffffffffffffffff1673ffffffffffffffffffffffffffffffffffffffff1673ffffffffffffffffffffffffffffffffffffffff1681526020016001820180546104c190610cb1565b80601f01602080910402602001604051908101604052809291908181526020018280546104ed90610cb1565b801561053a5780601f1061050f5761010080835404028352916020019161053a565b820191906000526020600020905b81548152906001019060200180831161051d57829003601f168201915b5050505050815260200160028201548152505081526020019060010190610438565b50505050905090565b6105fb816040516024016105799190610a54565b6040516020818303038152906040527f41304fac000000000000000000000000000000000000000000000000000000007bffffffffffffffffffffffffffffffffffffffffffffffffffffffff19166020820180517bffffffffffffffffffffffffffffffffffffffffffffffffffffffff8381831617835250505050610736565b50565b6106968282604051602401610614929190610a76565b6040516020818303038152906040527f319af333000000000000000000000000000000000000000000000000000000007bffffffffffffffffffffffffffffffffffffffffffffffffffffffff19166020820180517bffffffffffffffffffffffffffffffffffffffffffffffffffffffff8381831617835250505050610736565b5050565b61073282826040516024016106b0929190610aa6565b6040516020818303038152906040527f9710a9d0000000000000000000000000000000000000000000000000000000007bffffffffffffffffffffffffffffffffffffffffffffffffffffffff19166020820180517bffffffffffffffffffffffffffffffffffffffffffffffffffffffff8381831617835250505050610736565b5050565b60008151905060006a636f6e736f6c652e6c6f679050602083016000808483855afa5050505050565b82805461076b90610cb1565b90600052602060002090601f01602090048101928261078d57600085556107d4565b82601f106107a657805160ff19168380011785556107d4565b828001600101855582156107d4579182015b828111156107d35782518255916020019190600101906107b8565b5b5090506107e191906107e5565b5090565b5b808211156107fe5760008160009055506001016107e6565b5090565b600061081561081084610b46565b610b21565b90508281526020810184848401111561082d57600080fd5b610838848285610c6f565b509392505050565b600082601f83011261085157600080fd5b8135610861848260208601610802565b91505092915050565b60006020828403121561087c57600080fd5b600082013567ffffffffffffffff81111561089657600080fd5b6108a284828501610840565b91505092915050565b60006108b783836109c4565b905092915050565b6108c881610c33565b82525050565b6108d781610c33565b82525050565b60006108e882610b87565b6108f28185610baa565b93508360208202850161090485610b77565b8060005b85811015610940578484038952815161092185826108ab565b945061092c83610b9d565b925060208a01995050600181019050610908565b50829750879550505050505092915050565b600061095d82610b92565b6109678185610bbb565b9350610977818560208601610c7e565b61098081610da1565b840191505092915050565b600061099682610b92565b6109a08185610bcc565b93506109b0818560208601610c7e565b6109b981610da1565b840191505092915050565b60006060830160008301516109dc60008601826108bf565b50602083015184820360208601526109f48282610952565b9150506040830151610a096040860182610a14565b508091505092915050565b610a1d81610c65565b82525050565b610a2c81610c65565b82525050565b60006020820190508181036000830152610a4c81846108dd565b905092915050565b60006020820190508181036000830152610a6e818461098b565b905092915050565b60006040820190508181036000830152610a90818561098b565b9050610a9f60208301846108ce565b9392505050565b60006040820190508181036000830152610ac0818561098b565b9050610acf6020830184610a23565b9392505050565b6000602082019050610aeb6000830184610a23565b92915050565b6000604082019050610b066000830185610a23565b8181036020830152610b18818461098b565b90509392505050565b6000610b2b610b3c565b9050610b378282610ce3565b919050565b6000604051905090565b600067ffffffffffffffff821115610b6157610b60610d72565b5b610b6a82610da1565b9050602081019050919050565b6000819050602082019050919050565b600081519050919050565b600081519050919050565b6000602082019050919050565b600082825260208201905092915050565b600082825260208201905092915050565b600082825260208201905092915050565b6000610be882610c65565b9150610bf383610c65565b9250827fffffffffffffffffffffffffffffffffffffffffffffffffffffffffffffffff03821115610c2857610c27610d14565b5b828201905092915050565b6000610c3e82610c45565b9050919050565b600073ffffffffffffffffffffffffffffffffffffffff82169050919050565b6000819050919050565b82818337600083830152505050565b60005b83811015610c9c578082015181840152602081019050610c81565b83811115610cab576000848401525b50505050565b60006002820490506001821680610cc957607f821691505b60208210811415610cdd57610cdc610d43565b5b50919050565b610cec82610da1565b810181811067ffffffffffffffff82111715610d0b57610d0a610d72565b5b80604052505050565b7f4e487b7100000000000000000000000000000000000000000000000000000000600052601160045260246000fd5b7f4e487b7100000000000000000000000000000000000000000000000000000000600052602260045260246000fd5b7f4e487b7100000000000000000000000000000000000000000000000000000000600052604160045260246000fd5b6000601f19601f830116905091905056fea26469706673582212203f68e56328f10ff38409102ce668c50bdd723a31ea971bbf2eccc988e58b5a2364736f6c63430008040033596f20796f2c204920616d206120636f6e747261637420616e64204920616d20736d61727421",
  "linkReferences": {},
  "deployedLinkReferences": {}
}