{
  "_format": "hh-sol-artifact-1",
  "contractName": "WavePortal",
  "sourceName": "contracts/WavePortal.sol",
  "abi": [
    {
      "inputs": [],
      "stateMutability": "payable",
      "type": "constructor"
    },
    {
      "anonymous": false,
      "inputs": [
        {
          "indexed": true,
          "internalType": "address",
          "name": "from",
          "type": "address"
        },
        {
          "indexed": false,
          "internalType": "uint256",
          "name": "timestamp",
          "type": "uint256"
        },
        {
          "indexed": false,
          "internalType": "string",
          "name": "message",
          "type": "string"
        }
      ],
      "name": "NewWave",
      "type": "event"
    },
    {
      "inputs": [],
      "name": "getAllWaves",
      "outputs": [
        {
          "components": [
            {
              "internalType": "address",
              "name": "waver",
              "type": "address"
            },
            {
              "internalType": "string",
              "name": "message",
              "type": "string"
            },
            {
              "internalType": "uint256",
              "name": "timestamp",
              "type": "uint256"
            }
          ],
          "internalType": "struct WavePortal.Wave[]",
          "name": "",
          "type": "tuple[]"
        }
      ],
      "stateMutability": "view",
      "type": "function"
    },
    {
      "inputs": [],
      "name": "getTotalWavers",
      "outputs": [
        {
          "internalType": "uint256",
          "name": "",
          "type": "uint256"
        }
      ],
      "stateMutability": "view",
      "type": "function"
    },
    {
      "inputs": [],
      "name": "getTotalWaves",
      "outputs": [
        {
          "internalType": "uint256",
          "name": "",
          "type": "uint256"
        }
      ],
      "stateMutability": "view",
      "type": "function"
    },
    {
      "inputs": [
        {
          "internalType": "address",
          "name": "",
          "type": "address"
        }
      ],
      "name": "lastWavedAt",
      "outputs": [
        {
          "internalType": "uint256",
          "name": "",
          "type": "uint256"
        }
      ],
      "stateMutability": "view",
      "type": "function"
    },
    {
      "inputs": [
        {
          "internalType": "string",
          "name": "_message",
          "type": "string"
        }
      ],
      "name": "wave",
      "outputs": [],
      "stateMutability": "nonpayable",
      "type": "function"
    }
  ],
  "bytecode": "0x6080604052620000336040518060600160405280602681526020016200166c602691396200005b60201b6200083c1760201c565b60644442620000439190620001a8565b6200004f919062000245565b600181905550620002ec565b620000fb8160405160240162000072919062000168565b6040516020818303038152906040527f41304fac000000000000000000000000000000000000000000000000000000007bffffffffffffffffffffffffffffffffffffffffffffffffffffffff19166020820180517bffffffffffffffffffffffffffffffffffffffffffffffffffffffff8381831617835250505050620000fe60201b60201c565b50565b60008151905060006a636f6e736f6c652e6c6f679050602083016000808483855afa5050505050565b600062000134826200018c565b62000140818562000197565b9350620001528185602086016200020f565b6200015d81620002db565b840191505092915050565b6000602082019050818103600083015262000184818462000127565b905092915050565b600081519050919050565b600082825260208201905092915050565b6000620001b58262000205565b9150620001c28362000205565b9250827fffffffffffffffffffffffffffffffffffffffffffffffffffffffffffffffff03821115620001fa57620001f96200027d565b5b828201905092915050565b6000819050919050565b60005b838110156200022f57808201518184015260208101905062000212565b838111156200023f576000848401525b50505050565b6000620002528262000205565b91506200025f8362000205565b925082620002725762000271620002ac565b5b828206905092915050565b7f4e487b7100000000000000000000000000000000000000000000000000000000600052601160045260246000fd5b7f4e487b7100000000000000000000000000000000000000000000000000000000600052601260045260246000fd5b6000601f19601f8301169050919050565b61137080620002fc6000396000f3fe608060405234801561001057600080fd5b50600436106100575760003560e01c8063449d46c01461005c5780639a2cdc0814610078578063a126adab14610096578063a42a4663146100b4578063bd43a908146100e4575b600080fd5b61007660048036038101906100719190610b7f565b610102565b005b610080610637565b60405161008d9190610eec565b60405180910390f35b61009e610682565b6040516100ab9190610eec565b60405180910390f35b6100ce60048036038101906100c99190610b56565b6106d3565b6040516100db9190610eec565b60405180910390f35b6100ec6106eb565b6040516100f99190610de8565b60405180910390f35b42601e600560003373ffffffffffffffffffffffffffffffffffffffff1673ffffffffffffffffffffffffffffffffffffffff1681526020019081526020016000205461014f9190610ffe565b1061018f576040517f08c379a000000000000000000000000000000000000000000000000000000000815260040161018690610ecc565b60405180910390fd5b42600560003373ffffffffffffffffffffffffffffffffffffffff1673ffffffffffffffffffffffffffffffffffffffff168152602001908152602001600020819055506000600360003373ffffffffffffffffffffffffffffffffffffffff1673ffffffffffffffffffffffffffffffffffffffff16815260200190815260200160002054141561027f576004339080600181540180825580915050600190039060005260206000200160009091909190916101000a81548173ffffffffffffffffffffffffffffffffffffffff021916908373ffffffffffffffffffffffffffffffffffffffff1602179055505b60016000808282546102919190610ffe565b925050819055506001600360003373ffffffffffffffffffffffffffffffffffffffff1673ffffffffffffffffffffffffffffffffffffffff168152602001908152602001600020546102e49190610ffe565b600360003373ffffffffffffffffffffffffffffffffffffffff1673ffffffffffffffffffffffffffffffffffffffff168152602001908152602001600020819055506103666040518060400160405280600d81526020017f2573206861732077617665642100000000000000000000000000000000000000815250336108d5565b600260405180606001604052803373ffffffffffffffffffffffffffffffffffffffff16815260200183815260200142815250908060018154018082558091505060019003906000526020600020906003020160009091909190915060008201518160000160006101000a81548173ffffffffffffffffffffffffffffffffffffffff021916908373ffffffffffffffffffffffffffffffffffffffff1602179055506020820151816001019080519060200190610425929190610a36565b50604082015181600201555050606460015442446104439190610ffe565b61044d9190610ffe565b6104579190611135565b60018190555061049e6040518060400160405280600881526020017f2564207365656421000000000000000000000000000000000000000000000000815250600154610971565b6032600154116105e4576104e76040518060400160405280600781526020017f257320776f6e2100000000000000000000000000000000000000000000000000815250336108d5565b6000655af3107a4000905047811115610535576040517f08c379a000000000000000000000000000000000000000000000000000000000815260040161052c90610e8c565b60405180910390fd5b60003373ffffffffffffffffffffffffffffffffffffffff168260405161055b90610dd3565b60006040518083038185875af1925050503d8060008114610598576040519150601f19603f3d011682016040523d82523d6000602084013e61059d565b606091505b50509050806105e1576040517f08c379a00000000000000000000000000000000000000000000000000000000081526004016105d890610eac565b60405180910390fd5b50505b3373ffffffffffffffffffffffffffffffffffffffff167f5f7e16dc676677766a70e9c5628aa6c54ddb8b6e5188e2ae1e1f17f1ffbea716428360405161062c929190610f07565b60405180910390a250565b600061067a6040518060400160405280601781526020017f5765206861766520256420746f74616c20776176657321000000000000000000815250600054610971565b600054905090565b60006106c86040518060400160405280601881526020017f5765206861766520256420746f74616c20776176657273210000000000000000815250600480549050610971565b600480549050905090565b60056020528060005260406000206000915090505481565b60606002805480602002602001604051908101604052809291908181526020016000905b8282101561083357838290600052602060002090600302016040518060600160405290816000820160009054906101000a900473ffffffffffffffffffffffffffffffffffffffff1673ffffffffffffffffffffffffffffffffffffffff1673ffffffffffffffffffffffffffffffffffffffff168152602001600182018054610798906110d2565b80601f01602080910402602001604051908101604052809291908181526020018280546107c4906110d2565b80156108115780601f106107e657610100808354040283529160200191610811565b820191906000526020600020905b8154815290600101906020018083116107f457829003601f168201915b505050505081526020016002820154815250508152602001906001019061070f565b50505050905090565b6108d2816040516024016108509190610e0a565b6040516020818303038152906040527f41304fac000000000000000000000000000000000000000000000000000000007bffffffffffffffffffffffffffffffffffffffffffffffffffffffff19166020820180517bffffffffffffffffffffffffffffffffffffffffffffffffffffffff8381831617835250505050610a0d565b50565b61096d82826040516024016108eb929190610e2c565b6040516020818303038152906040527f319af333000000000000000000000000000000000000000000000000000000007bffffffffffffffffffffffffffffffffffffffffffffffffffffffff19166020820180517bffffffffffffffffffffffffffffffffffffffffffffffffffffffff8381831617835250505050610a0d565b5050565b610a098282604051602401610987929190610e5c565b6040516020818303038152906040527f9710a9d0000000000000000000000000000000000000000000000000000000007bffffffffffffffffffffffffffffffffffffffffffffffffffffffff19166020820180517bffffffffffffffffffffffffffffffffffffffffffffffffffffffff8381831617835250505050610a0d565b5050565b60008151905060006a636f6e736f6c652e6c6f679050602083016000808483855afa5050505050565b828054610a42906110d2565b90600052602060002090601f016020900481019282610a645760008555610aab565b82601f10610a7d57805160ff1916838001178555610aab565b82800160010185558215610aab579182015b82811115610aaa578251825591602001919060010190610a8f565b5b509050610ab89190610abc565b5090565b5b80821115610ad5576000816000905550600101610abd565b5090565b6000610aec610ae784610f5c565b610f37565b905082815260208101848484011115610b0457600080fd5b610b0f848285611090565b509392505050565b600081359050610b2681611323565b92915050565b600082601f830112610b3d57600080fd5b8135610b4d848260208601610ad9565b91505092915050565b600060208284031215610b6857600080fd5b6000610b7684828501610b17565b91505092915050565b600060208284031215610b9157600080fd5b600082013567ffffffffffffffff811115610bab57600080fd5b610bb784828501610b2c565b91505092915050565b6000610bcc8383610d65565b905092915050565b610bdd81611054565b82525050565b610bec81611054565b82525050565b6000610bfd82610f9d565b610c078185610fc0565b935083602082028501610c1985610f8d565b8060005b85811015610c555784840389528151610c368582610bc0565b9450610c4183610fb3565b925060208a01995050600181019050610c1d565b50829750879550505050505092915050565b6000610c7282610fa8565b610c7c8185610fdc565b9350610c8c81856020860161109f565b610c9581611222565b840191505092915050565b6000610cab82610fa8565b610cb58185610fed565b9350610cc581856020860161109f565b610cce81611222565b840191505092915050565b6000610ce6603483610fed565b9150610cf182611233565b604082019050919050565b6000610d09602783610fed565b9150610d1482611282565b604082019050919050565b6000610d2c602983610fed565b9150610d37826112d1565b604082019050919050565b6000610d4f600083610fd1565b9150610d5a82611320565b600082019050919050565b6000606083016000830151610d7d6000860182610bd4565b5060208301518482036020860152610d958282610c67565b9150506040830151610daa6040860182610db5565b508091505092915050565b610dbe81611086565b82525050565b610dcd81611086565b82525050565b6000610dde82610d42565b9150819050919050565b60006020820190508181036000830152610e028184610bf2565b905092915050565b60006020820190508181036000830152610e248184610ca0565b905092915050565b60006040820190508181036000830152610e468185610ca0565b9050610e556020830184610be3565b9392505050565b60006040820190508181036000830152610e768185610ca0565b9050610e856020830184610dc4565b9392505050565b60006020820190508181036000830152610ea581610cd9565b9050919050565b60006020820190508181036000830152610ec581610cfc565b9050919050565b60006020820190508181036000830152610ee581610d1f565b9050919050565b6000602082019050610f016000830184610dc4565b92915050565b6000604082019050610f1c6000830185610dc4565b8181036020830152610f2e8184610ca0565b90509392505050565b6000610f41610f52565b9050610f4d8282611104565b919050565b6000604051905090565b600067ffffffffffffffff821115610f7757610f766111f3565b5b610f8082611222565b9050602081019050919050565b6000819050602082019050919050565b600081519050919050565b600081519050919050565b6000602082019050919050565b600082825260208201905092915050565b600081905092915050565b600082825260208201905092915050565b600082825260208201905092915050565b600061100982611086565b915061101483611086565b9250827fffffffffffffffffffffffffffffffffffffffffffffffffffffffffffffffff0382111561104957611048611166565b5b828201905092915050565b600061105f82611066565b9050919050565b600073ffffffffffffffffffffffffffffffffffffffff82169050919050565b6000819050919050565b82818337600083830152505050565b60005b838110156110bd5780820151818401526020810190506110a2565b838111156110cc576000848401525b50505050565b600060028204905060018216806110ea57607f821691505b602082108114156110fe576110fd6111c4565b5b50919050565b61110d82611222565b810181811067ffffffffffffffff8211171561112c5761112b6111f3565b5b80604052505050565b600061114082611086565b915061114b83611086565b92508261115b5761115a611195565b5b828206905092915050565b7f4e487b7100000000000000000000000000000000000000000000000000000000600052601160045260246000fd5b7f4e487b7100000000000000000000000000000000000000000000000000000000600052601260045260246000fd5b7f4e487b7100000000000000000000000000000000000000000000000000000000600052602260045260246000fd5b7f4e487b7100000000000000000000000000000000000000000000000000000000600052604160045260246000fd5b6000601f19601f8301169050919050565b7f547279696e6720746f207769746864726177206d6f7265206d6f6e657920746860008201527f616e2074686520636f6e7472616374206861732e000000000000000000000000602082015250565b7f4661696c656420746f207769746864726177206d6f6e65792066726f6d20636f60008201527f6e74726163742e00000000000000000000000000000000000000000000000000602082015250565b7f4d7573742077616974203330207365636f6e6473206265666f7265207761766960008201527f6e6720616761696e2e0000000000000000000000000000000000000000000000602082015250565b50565b61132c81611054565b811461133757600080fd5b5056fea26469706673582212206a256e6fcb5991c3acae1f19f2a3387c655c79524de56546313750871e849f6b64736f6c63430008040033596f20796f2c204920616d206120636f6e747261637420616e64204920616d20736d61727421",
  "linkReferences": {},
  "deployedLinkReferences": {}
}